{
  "contractName": "QueryResultHandler",
  "abi": [
    {
      "constant": false,
      "inputs": [
        {
          "name": "_queryId",
          "type": "uint256"
        },
        {
          "name": "_resultId",
          "type": "uint256"
        },
        {
          "name": "_queryString",
          "type": "string"
        },
        {
          "name": "_resultString",
          "type": "string"
        }
      ],
      "name": "storeQueryResults",
      "outputs": [
        {
          "name": "success",
          "type": "bool"
        }
      ],
      "payable": false,
      "stateMutability": "nonpayable",
      "type": "function"
    },
    {
      "constant": true,
      "inputs": [
        {
          "name": "_queryId",
          "type": "uint256"
        },
        {
          "name": "_resultId",
          "type": "uint256"
        }
      ],
      "name": "validateQueryResultsById",
      "outputs": [
        {
          "name": "success",
          "type": "bool"
        }
      ],
      "payable": false,
      "stateMutability": "view",
      "type": "function"
    },
    {
      "constant": true,
      "inputs": [
        {
          "name": "_queryString",
          "type": "string"
        },
        {
          "name": "_resultString",
          "type": "string"
        }
      ],
      "name": "validateQueryResultsByString",
      "outputs": [
        {
          "name": "success",
          "type": "bool"
        }
      ],
      "payable": false,
      "stateMutability": "view",
      "type": "function"
    }
  ],
  "bytecode": "0x6060604052341561000f57600080fd5b61049d8061001e6000396000f300606060405260043610610057576000357c0100000000000000000000000000000000000000000000000000000000900463ffffffff1680630ebb26fe1461005c5780633405486b146100b6578063b8ccbb36146100fa575b600080fd5b341561006757600080fd5b61009c600480803590602001908201803590602001919091929080359060200190820180359060200191909192905050610166565b604051808215151515815260200191505060405180910390f35b34156100c157600080fd5b6100e06004808035906020019091908035906020019091905050610245565b604051808215151515815260200191505060405180910390f35b341561010557600080fd5b61014c6004808035906020019091908035906020019091908035906020019082018035906020019190919290803590602001908201803590602001919091929050506102cf565b604051808215151515815260200191505060405180910390f35b60008060008060008888604051808383808284378201915050925050506040518091039020935086866040518083838082843782019150509250505060405180910390209250838360405180836000191660001916815260200182600019166000191681526020019250505060405180910390209150600090505b60008054905081101561023457816000191660008281548110151561020257fe5b9060005260206000209060050201600001546000191614156102275760019450610239565b80806001019150506101e1565b600094505b50505050949350505050565b600080600090505b6000805490508110156102c3578360008281548110151561026a57fe5b9060005260206000209060050201600301541480156102a857508260008281548110151561029457fe5b906000526020600020906005020160040154145b156102b657600191506102c8565b808060010191505061024d565b600091505b5092915050565b60008060008087876040518083838082843782019150509250505060405180910390209250858560405180838380828437820191505092505050604051809103902091508282604051808360001916600019168152602001826000191660001916815260200192505050604051809103902090506000805480600101828161035791906103f8565b9160005260206000209060050201600060a0604051908101604052808560001916815260200187600019168152602001866000191681526020018e81526020018d81525090919091506000820151816000019060001916905560208201518160010190600019169055604082015181600201906000191690556060820151816003015560808201518160040155505050600193505050509695505050505050565b81548183558181151161042557600502816005028360005260206000209182019101610424919061042a565b5b505050565b61046e91905b8082111561046a57600080820160009055600182016000905560028201600090556003820160009055600482016000905550600501610430565b5090565b905600a165627a7a723058202c99d2a3015d37615aea646d57e6a8524cc1f83c3a8a6cc6a7e0f4ef9e7e05ce0029",
  "source": "pragma solidity ^0.4.4;\r\n\r\ncontract QueryResultHandler {\r\n\r\n  struct QueryResultStruct {\r\n      bytes32 finalHash;\r\n      bytes32 queryHash;\r\n      bytes32 resultHash;\r\n      uint256 queryId;\r\n      uint256 resultId;\r\n  }\r\n\r\n  QueryResultStruct[] queryResultStructArray;\r\n\r\n  function storeQueryResults(uint256 _queryId, uint256 _resultId, string _queryString, string _resultString) external returns (bool success) {\r\n    bytes32 queryHash = keccak256(_queryString);\r\n    bytes32 resultHash = keccak256(_resultString);\r\n    bytes32 hashThem = keccak256(queryHash, resultHash);\r\n    queryResultStructArray.push(QueryResultStruct(hashThem, queryHash, resultHash, _queryId, _resultId));\r\n    return true;\r\n  }\r\n\r\n  function validateQueryResultsById(uint256 _queryId, uint256 _resultId) external view returns (bool success) {\r\n    for (uint i = 0; i < queryResultStructArray.length; i++){\r\n        if (queryResultStructArray[i].queryId == _queryId\r\n        && queryResultStructArray[i].resultId == _resultId) {\r\n            return true;\r\n        } else {\r\n            continue;\r\n        }\r\n    }\r\n    return false;\r\n  }\r\n\r\n  function validateQueryResultsByString(string _queryString, string _resultString) external view returns (bool success) {\r\n    bytes32 queryHash = keccak256(_queryString);\r\n    bytes32 resultHash = keccak256(_resultString);\r\n\r\n    bytes32 hashThem = keccak256(queryHash, resultHash);\r\n\r\n    for (uint i = 0; i < queryResultStructArray.length; i++){\r\n        if (queryResultStructArray[i].finalHash == hashThem) {\r\n            return true;\r\n        }\r\n    }\r\n    return false;\r\n  }\r\n}\r\n",
  "sourcePath": "C:\\Users\\Antona\\dapps\\MA_project\\contracts\\QueryResultHandler.sol",
  "compiler": {
    "name": "solc",
    "version": "0.4.19+commit.c4cbbb05.Emscripten.clang"
  },
  "schemaVersion": "1.0.1",
  "updatedAt": "2018-03-28T17:04:49.994Z"
}