{
  "contractName": "QueryResultHandler",
  "abi": [
    {
      "constant": true,
      "inputs": [],
      "name": "viewResultCode",
      "outputs": [
        {
          "name": "",
          "type": "uint8"
        }
      ],
      "payable": false,
      "stateMutability": "view",
      "type": "function"
    },
    {
      "payable": false,
      "stateMutability": "nonpayable",
      "type": "fallback"
    },
    {
      "anonymous": false,
      "inputs": [
        {
          "indexed": false,
          "name": "queryId",
          "type": "uint256"
        },
        {
          "indexed": false,
          "name": "resultId",
          "type": "uint256"
        }
      ],
      "name": "QueryResultStored",
      "type": "event"
    },
    {
      "anonymous": false,
      "inputs": [],
      "name": "RowStored",
      "type": "event"
    },
    {
      "anonymous": false,
      "inputs": [
        {
          "indexed": false,
          "name": "errorMessage",
          "type": "string"
        }
      ],
      "name": "Error",
      "type": "event"
    },
    {
      "constant": false,
      "inputs": [
        {
          "name": "_queryId",
          "type": "uint256"
        },
        {
          "name": "_resultId",
          "type": "uint256"
        },
        {
          "name": "_queryString",
          "type": "string"
        },
        {
          "name": "_resultString",
          "type": "string"
        }
      ],
      "name": "storeQueryResults",
      "outputs": [
        {
          "name": "success",
          "type": "bool"
        }
      ],
      "payable": false,
      "stateMutability": "nonpayable",
      "type": "function"
    },
    {
      "constant": true,
      "inputs": [
        {
          "name": "_queryId",
          "type": "uint256"
        },
        {
          "name": "_resultId",
          "type": "uint256"
        }
      ],
      "name": "validateQueryResultsById",
      "outputs": [
        {
          "name": "result",
          "type": "uint8"
        }
      ],
      "payable": false,
      "stateMutability": "view",
      "type": "function"
    },
    {
      "constant": true,
      "inputs": [
        {
          "name": "_queryString",
          "type": "string"
        },
        {
          "name": "_resultString",
          "type": "string"
        }
      ],
      "name": "validateQueryResultsByString",
      "outputs": [
        {
          "name": "result",
          "type": "uint8"
        }
      ],
      "payable": false,
      "stateMutability": "view",
      "type": "function"
    },
    {
      "constant": false,
      "inputs": [
        {
          "name": "_resultId",
          "type": "uint256"
        },
        {
          "name": "_rowString",
          "type": "string"
        }
      ],
      "name": "storeRow",
      "outputs": [
        {
          "name": "success",
          "type": "bool"
        }
      ],
      "payable": false,
      "stateMutability": "nonpayable",
      "type": "function"
    },
    {
      "constant": true,
      "inputs": [
        {
          "name": "_resultId",
          "type": "uint256"
        },
        {
          "name": "_rowString",
          "type": "string"
        }
      ],
      "name": "validateRow",
      "outputs": [
        {
          "name": "result",
          "type": "uint8"
        }
      ],
      "payable": false,
      "stateMutability": "view",
      "type": "function"
    }
  ],
  "bytecode": "0x6060604052341561000f57600080fd5b610b7e8061001e6000396000f300606060405260043610610078576000357c0100000000000000000000000000000000000000000000000000000000900463ffffffff1680630ebb26fe14610113578063185515a4146101775780633405486b146101d05780636d1fb30f1461021e57806389749d3614610255578063b8ccbb36146102a4575b341561008357600080fd5b7f08c379a0afcc32b1a39302f7cb8073359698411ab5fd6e3edb2c02c0b5fba8aa6040518080602001828103825260348152602001807f4e6f2066756e6374696f6e206973206e6f7420646566696e656420776974682081526020017f74686520676976656e206964656e74696669657200000000000000000000000081525060400191505060405180910390a1005b341561011e57600080fd5b610153600480803590602001908201803590602001919091929080359060200190820180359060200191909192905050610310565b6040518082600381111561016357fe5b60ff16815260200191505060405180910390f35b341561018257600080fd5b6101ac60048080359060200190919080359060200190820180359060200191909192905050610418565b604051808260038111156101bc57fe5b60ff16815260200191505060405180910390f35b34156101db57600080fd5b6101fa60048080359060200190919080359060200190919050506104d9565b6040518082600381111561020a57fe5b60ff16815260200191505060405180910390f35b341561022957600080fd5b610231610589565b6040518082600381111561024157fe5b60ff16815260200191505060405180910390f35b341561026057600080fd5b61028a6004808035906020019091908035906020019082018035906020019190919290505061059c565b604051808215151515815260200191505060405180910390f35b34156102af57600080fd5b6102f660048080359060200190919080359060200190919080359060200190820180359060200191909192908035906020019082018035906020019190919290505061072f565b604051808215151515815260200191505060405180910390f35b60008060008060008089899050141561032c576003945061040c565b6000878790501415610341576003945061040c565b8888604051808383808284378201915050925050506040518091039020935086866040518083838082843782019150509250505060405180910390209250838360405180836000191660001916815260200182600019166000191681526020019250505060405180910390209150600090505b6000805490508110156104075781600019166000828154811015156103d557fe5b9060005260206000209060050201600001546000191614156103fa576000945061040c565b80806001019150506103b4565b600194505b50505050949350505050565b60008060008060008711151561043157600293506104cf565b600086869050141561044657600393506104cf565b85856040518083838082843782019150509250505060405180910390209250600160008881526020019081526020016000209150600090505b81805490508110156104ca578260001916828281548110151561049e57fe5b9060005260206000209001546000191614156104bd57600093506104cf565b808060010191505061047f565b600193505b5050509392505050565b6000806000841115156104ef5760029150610582565b6000831115156105025760029150610582565b600090505b60008054905081101561057d578360008281548110151561052457fe5b90600052602060002090600502016003015414801561056257508260008281548110151561054e57fe5b906000526020600020906005020160040154145b156105705760009150610582565b8080600101915050610507565b600191505b5092915050565b600260009054906101000a900460ff1681565b60008060008511151561061a577f08c379a0afcc32b1a39302f7cb8073359698411ab5fd6e3edb2c02c0b5fba8aa6040518080602001828103825260208152602001807f526573756c74204944206d7573742062652067726561746572207468616e203081525060200191505060405180910390a160009150610727565b6000848490501415610697577f08c379a0afcc32b1a39302f7cb8073359698411ab5fd6e3edb2c02c0b5fba8aa60405180806020018281038252601b8152602001807f526f7720737472696e67206d7573742062652070726f7669646564000000000081525060200191505060405180910390a160009150610727565b838360405180838380828437820191505092505050604051809103902090506001600086815260200190815260200160002080548060010182816106db9190610a88565b9160005260206000209001600083909190915090600019169055507f7c2d36c29ad860ff13ca8c67e5731f6e0e74705c878d5b1d7674ebbdea49b9e160405160405180910390a1600191505b509392505050565b60008060008060008a1115156107b0577f08c379a0afcc32b1a39302f7cb8073359698411ab5fd6e3edb2c02c0b5fba8aa60405180806020018281038252601f8152602001807f5175657279204944206d7573742062652067726561746572207468616e20300081525060200191505060405180910390a160009350610a7b565b60008911151561082b577f08c379a0afcc32b1a39302f7cb8073359698411ab5fd6e3edb2c02c0b5fba8aa6040518080602001828103825260208152602001807f526573756c74204944206d7573742062652067726561746572207468616e203081525060200191505060405180910390a160009350610a7b565b60008888905014156108a8577f08c379a0afcc32b1a39302f7cb8073359698411ab5fd6e3edb2c02c0b5fba8aa60405180806020018281038252601d8152602001807f517565727920737472696e67206d7573742062652070726f766964656400000081525060200191505060405180910390a160009350610a7b565b6000868690501415610925577f08c379a0afcc32b1a39302f7cb8073359698411ab5fd6e3edb2c02c0b5fba8aa60405180806020018281038252601e8152602001807f526573756c7420737472696e67206d7573742062652070726f7669646564000081525060200191505060405180910390a160009350610a7b565b8787604051808383808284378201915050925050506040518091039020925085856040518083838082843782019150509250505060405180910390209150828260405180836000191660001916815260200182600019166000191681526020019250505060405180910390209050600080548060010182816109a79190610ab4565b9160005260206000209060050201600060a0604051908101604052808560001916815260200187600019168152602001866000191681526020018e81526020018d815250909190915060008201518160000190600019169055602082015181600101906000191690556040820151816002019060001916905560608201518160030155608082015181600401555050507fd749263ac9f1f1c234815a6c39c50411c4891d06e68ca38be0043aa7444be4188a8a604051808381526020018281526020019250505060405180910390a1600193505b5050509695505050505050565b815481835581811511610aaf57818360005260206000209182019101610aae9190610ae6565b5b505050565b815481835581811511610ae157600502816005028360005260206000209182019101610ae09190610b0b565b5b505050565b610b0891905b80821115610b04576000816000905550600101610aec565b5090565b90565b610b4f91905b80821115610b4b57600080820160009055600182016000905560028201600090556003820160009055600482016000905550600501610b11565b5090565b905600a165627a7a7230582060a95a48aef889fb930551ef78933954a6f202b0ac168ccc33ff04175915ead70029",
  "source": "pragma solidity ^0.4.21;\r\n\r\ncontract QueryResultHandler {\r\n\r\n  struct QueryResultStruct {\r\n      bytes32 finalHash;\r\n      bytes32 queryHash;\r\n      bytes32 resultHash;\r\n      uint256 queryId;\r\n      uint256 resultId;\r\n  }\r\n\r\n  QueryResultStruct[] queryResultStructArray;\r\n\r\n  mapping(uint256=>bytes32[]) idRowArrayMapping;\r\n\r\n  event QueryResultStored(\r\n    uint256 queryId,\r\n    uint256 resultId\r\n    );\r\n  event RowStored();\r\n  event Error(string errorMessage);\r\n\r\n  enum ViewResultCodes { Success, NoMatchFound, IntegerNotPositive, StringEmpty }\r\n  ViewResultCodes public viewResultCode;\r\n\r\n  function storeQueryResults(uint256 _queryId, uint256 _resultId, string _queryString, string _resultString) external returns (bool success) {\r\n    if (_queryId <= 0) {\r\n      emit Error(\"Query ID must be greater than 0\");\r\n      return false;\r\n    }\r\n    if (_resultId <= 0) {\r\n      emit Error(\"Result ID must be greater than 0\");\r\n      return false;\r\n    }\r\n    if (bytes(_queryString).length == 0) {\r\n      emit Error(\"Query string must be provided\");\r\n      return false;\r\n    }\r\n    if (bytes(_resultString).length == 0) {\r\n      emit Error(\"Result string must be provided\");\r\n      return false;\r\n    }\r\n\r\n    bytes32 queryHash = keccak256(_queryString);\r\n    bytes32 resultHash = keccak256(_resultString);\r\n    bytes32 finalHash = keccak256(queryHash, resultHash);\r\n    queryResultStructArray.push(QueryResultStruct(finalHash, queryHash, resultHash, _queryId, _resultId));\r\n    emit QueryResultStored(_queryId, _resultId);\r\n    return true;\r\n  }\r\n\r\n  function validateQueryResultsById(uint256 _queryId, uint256 _resultId) external view returns (ViewResultCodes result) {\r\n    if (_queryId <= 0) {\r\n      return ViewResultCodes.IntegerNotPositive;\r\n    }\r\n    if (_resultId <= 0) {\r\n      return ViewResultCodes.IntegerNotPositive;\r\n    }\r\n    for (uint i = 0; i < queryResultStructArray.length; i++) {\r\n        if (queryResultStructArray[i].queryId == _queryId\r\n        && queryResultStructArray[i].resultId == _resultId) {\r\n            return ViewResultCodes.Success;\r\n        }\r\n    }\r\n    return ViewResultCodes.NoMatchFound;\r\n  }\r\n\r\n  function validateQueryResultsByString(string _queryString, string _resultString) external view returns (ViewResultCodes result) {\r\n    if (bytes(_queryString).length == 0) {\r\n      return ViewResultCodes.StringEmpty;\r\n    }\r\n    if (bytes(_resultString).length == 0) {\r\n      return ViewResultCodes.StringEmpty;\r\n    }\r\n    bytes32 queryHash = keccak256(_queryString);\r\n    bytes32 resultHash = keccak256(_resultString);\r\n\r\n    bytes32 finalHash = keccak256(queryHash, resultHash);\r\n\r\n    for (uint i = 0; i < queryResultStructArray.length; i++) {\r\n        if (queryResultStructArray[i].finalHash == finalHash) {\r\n            return ViewResultCodes.Success;\r\n        }\r\n    }\r\n    return ViewResultCodes.NoMatchFound;\r\n  }\r\n\r\n  function storeRow(uint256 _resultId, string _rowString) external returns (bool success) {\r\n    if (_resultId <= 0) {\r\n      emit Error(\"Result ID must be greater than 0\");\r\n      return false;\r\n    }\r\n    if (bytes(_rowString).length == 0) {\r\n      emit Error(\"Row string must be provided\");\r\n      return false;\r\n    }\r\n\r\n    bytes32 rowHash = keccak256(_rowString);\r\n    idRowArrayMapping[_resultId].push(rowHash);\r\n    emit RowStored();\r\n    return true;\r\n  }\r\n\r\n  function validateRow(uint256 _resultId, string _rowString) external view returns (ViewResultCodes result) {\r\n    if (_resultId <= 0) {\r\n      return ViewResultCodes.IntegerNotPositive;\r\n    }\r\n    if (bytes(_rowString).length == 0) {\r\n      return ViewResultCodes.StringEmpty;\r\n    }\r\n\r\n    bytes32 rowHash = keccak256(_rowString);\r\n    bytes32[] storage dataSet = idRowArrayMapping[_resultId];\r\n\r\n    for (uint i = 0; i < dataSet.length; i++) {\r\n      if (dataSet[i] == rowHash) {\r\n        return ViewResultCodes.Success;\r\n      }\r\n    }\r\n    return ViewResultCodes.NoMatchFound;\r\n  }\r\n\r\n  function() public {\r\n    emit Error(\"No function is not defined with the given identifier\");\r\n  }\r\n}\r\n",
  "sourcePath": "C:\\Users\\Antona\\dapps\\MA_project\\contracts\\QueryResultHandler.sol",
  "compiler": {
    "name": "solc",
    "version": "0.4.21+commit.dfe3193c.Emscripten.clang"
  },
  "schemaVersion": "2.0.0",
  "updatedAt": "2018-04-15T11:26:18.838Z"
}