{
  "contractName": "QueryResultHandler",
  "abi": [
    {
      "constant": false,
      "inputs": [
        {
          "name": "_queryId",
          "type": "uint256"
        },
        {
          "name": "_resultId",
          "type": "uint256"
        },
        {
          "name": "_queryString",
          "type": "string"
        },
        {
          "name": "_resultString",
          "type": "string"
        }
      ],
      "name": "storeQueryResults",
      "outputs": [
        {
          "name": "success",
          "type": "bool"
        }
      ],
      "payable": false,
      "stateMutability": "nonpayable",
      "type": "function"
    },
    {
      "constant": true,
      "inputs": [
        {
          "name": "_queryString",
          "type": "string"
        },
        {
          "name": "_resultString",
          "type": "string"
        }
      ],
      "name": "validateQueryResults",
      "outputs": [
        {
          "name": "success",
          "type": "bool"
        }
      ],
      "payable": false,
      "stateMutability": "view",
      "type": "function"
    },
    {
      "constant": true,
      "inputs": [
        {
          "name": "_queryId",
          "type": "uint256"
        },
        {
          "name": "_resultId",
          "type": "uint256"
        }
      ],
      "name": "validateQueryResults",
      "outputs": [
        {
          "name": "success",
          "type": "bool"
        }
      ],
      "payable": false,
      "stateMutability": "view",
      "type": "function"
    }
  ],
  "bytecode": "0x6060604052341561000f57600080fd5b6105038061001e6000396000f300606060405260043610610057576000357c0100000000000000000000000000000000000000000000000000000000900463ffffffff1680631bf6c6cc1461005c578063b8ccbb36146100b6578063c72049ec14610122575b600080fd5b341561006757600080fd5b61009c600480803590602001908201803590602001919091929080359060200190820180359060200191909192905050610166565b604051808215151515815260200191505060405180910390f35b34156100c157600080fd5b6101086004808035906020019091908035906020019091908035906020019082018035906020019190919290803590602001908201803590602001919091929050506102ab565b604051808215151515815260200191505060405180910390f35b341561012d57600080fd5b61014c60048080359060200190919080359060200190919050506103d4565b604051808215151515815260200191505060405180910390f35b60008060008060008888604051808383808284378201915050925050506040518091039020935086866040518083838082843782019150509250505060405180910390209250838360405180836000191660001916815260200182600019166000191681526020019250505060405180910390209150600090505b60008054905081101561029a57816000191660008281548110151561020257fe5b9060005260206000209060050201600001546000191614801561024c5750836000191660008281548110151561023457fe5b90600052602060002090600502016001015460001916145b801561027f5750826000191660008281548110151561026757fe5b90600052602060002090600502016002015460001916145b1561028d576001945061029f565b80806001019150506101e1565b600094505b50505050949350505050565b600080600080878760405180838380828437820191505092505050604051809103902092508585604051808383808284378201915050925050506040518091039020915082826040518083600019166000191681526020018260001916600019168152602001925050506040518091039020905060008054806001018281610333919061045e565b9160005260206000209060050201600060a0604051908101604052808560001916815260200187600019168152602001866000191681526020018e81526020018d81525090919091506000820151816000019060001916905560208201518160010190600019169055604082015181600201906000191690556060820151816003015560808201518160040155505050600193505050509695505050505050565b600080600090505b60008054905081101561045257836000828154811015156103f957fe5b90600052602060002090600502016003015414801561043757508260008281548110151561042357fe5b906000526020600020906005020160040154145b156104455760019150610457565b80806001019150506103dc565b600091505b5092915050565b81548183558181151161048b5760050281600502836000526020600020918201910161048a9190610490565b5b505050565b6104d491905b808211156104d057600080820160009055600182016000905560028201600090556003820160009055600482016000905550600501610496565b5090565b905600a165627a7a72305820f8c35fdbbe049f45785bf2caa034f3ecd5607713ed99372ebc7a696d911b09130029",
  "source": "pragma solidity ^0.4.4;\r\n\r\ncontract QueryResultHandler {\r\n\r\n  struct QueryResultStruct {\r\n      bytes32 finalHash;\r\n      bytes32 queryHash;\r\n      bytes32 resultHash;\r\n      uint256 queryId;\r\n      uint256 resultId;\r\n  }\r\n\r\n  QueryResultStruct[] queryResultStructArray;\r\n\r\n  function storeQueryResults(uint256 _queryId, uint256 _resultId, string _queryString, string _resultString) external returns (bool success) {\r\n    bytes32 queryHash = keccak256(_queryString);\r\n    bytes32 resultHash = keccak256(_resultString);\r\n    bytes32 hashThem = keccak256(queryHash, resultHash);\r\n    queryResultStructArray.push(QueryResultStruct(hashThem, queryHash, resultHash, _queryId, _resultId));\r\n    return true;\r\n  }\r\n\r\n  function validateQueryResults(uint256 _queryId, uint256 _resultId) external view returns (bool success ){\r\n    for (uint i = 0; i < queryResultStructArray.length; i++){\r\n        if (queryResultStructArray[i].queryId == _queryId\r\n        && queryResultStructArray[i].resultId == _resultId) {\r\n            return true;\r\n        } else {\r\n            continue;\r\n        }\r\n    }\r\n    return false;\r\n  }\r\n\r\n  function validateQueryResults(string _queryString, string _resultString) external view returns (bool success ){\r\n    bytes32 queryHash = keccak256(_queryString);\r\n    bytes32 resultHash = keccak256(_resultString);\r\n\r\n    bytes32 hashThem = keccak256(queryHash, resultHash);\r\n\r\n    for (uint i = 0; i < queryResultStructArray.length; i++){\r\n        if (queryResultStructArray[i].finalHash == hashThem\r\n        && queryResultStructArray[i].queryHash == queryHash\r\n        && queryResultStructArray[i].resultHash == resultHash) {\r\n            return true;\r\n        } else {\r\n            continue;\r\n        }\r\n    }\r\n    return false;\r\n  }\r\n}\r\n",
  "sourcePath": "C:\\Users\\Antona\\dapps\\MA_project\\contracts\\QueryResultHandler.sol",
  "compiler": {
    "name": "solc",
    "version": "0.4.19+commit.c4cbbb05.Emscripten.clang"
  },
  "schemaVersion": "1.0.1",
  "updatedAt": "2018-03-19T14:55:37.250Z"
}