{
  "contractName": "QueryResultHandler",
  "abi": [
    {
      "payable": false,
      "stateMutability": "nonpayable",
      "type": "fallback"
    },
    {
      "anonymous": false,
      "inputs": [
        {
          "indexed": false,
          "name": "errorMessage",
          "type": "string"
        }
      ],
      "name": "Error",
      "type": "event"
    },
    {
      "constant": false,
      "inputs": [
        {
          "name": "_queryId",
          "type": "uint256"
        },
        {
          "name": "_resultId",
          "type": "uint256"
        },
        {
          "name": "_queryString",
          "type": "string"
        },
        {
          "name": "_resultString",
          "type": "string"
        }
      ],
      "name": "storeQueryResults",
      "outputs": [
        {
          "name": "success",
          "type": "bool"
        }
      ],
      "payable": false,
      "stateMutability": "nonpayable",
      "type": "function"
    },
    {
      "constant": true,
      "inputs": [
        {
          "name": "_queryId",
          "type": "uint256"
        },
        {
          "name": "_resultId",
          "type": "uint256"
        }
      ],
      "name": "validateQueryResultsById",
      "outputs": [
        {
          "name": "success",
          "type": "bool"
        }
      ],
      "payable": false,
      "stateMutability": "view",
      "type": "function"
    },
    {
      "constant": true,
      "inputs": [
        {
          "name": "_queryString",
          "type": "string"
        },
        {
          "name": "_resultString",
          "type": "string"
        }
      ],
      "name": "validateQueryResultsByString",
      "outputs": [
        {
          "name": "success",
          "type": "bool"
        }
      ],
      "payable": false,
      "stateMutability": "view",
      "type": "function"
    },
    {
      "constant": false,
      "inputs": [
        {
          "name": "_id",
          "type": "uint256"
        },
        {
          "name": "_row",
          "type": "string"
        }
      ],
      "name": "storeRow",
      "outputs": [
        {
          "name": "success",
          "type": "bool"
        }
      ],
      "payable": false,
      "stateMutability": "nonpayable",
      "type": "function"
    },
    {
      "constant": true,
      "inputs": [
        {
          "name": "_id",
          "type": "uint256"
        },
        {
          "name": "_row",
          "type": "string"
        }
      ],
      "name": "validateRow",
      "outputs": [
        {
          "name": "success",
          "type": "bool"
        }
      ],
      "payable": false,
      "stateMutability": "view",
      "type": "function"
    }
  ],
  "bytecode": "0x6060604052341561000f57600080fd5b6109308061001e6000396000f30060606040526004361061006d576000357c0100000000000000000000000000000000000000000000000000000000900463ffffffff1680630ebb26fe14610108578063185515a4146101625780633405486b146101b157806389749d36146101f5578063b8ccbb3614610244575b341561007857600080fd5b7f08c379a0afcc32b1a39302f7cb8073359698411ab5fd6e3edb2c02c0b5fba8aa6040518080602001828103825260348152602001807f4e6f2066756e6374696f6e206973206e6f7420646566696e656420776974682081526020017f74686520676976656e206964656e74696669657200000000000000000000000081525060400191505060405180910390a1005b341561011357600080fd5b6101486004808035906020019082018035906020019190919290803590602001908201803590602001919091929050506102b0565b604051808215151515815260200191505060405180910390f35b341561016d57600080fd5b6101976004808035906020019091908035906020019082018035906020019190919290505061038f565b604051808215151515815260200191505060405180910390f35b34156101bc57600080fd5b6101db6004808035906020019091908035906020019091905050610428565b604051808215151515815260200191505060405180910390f35b341561020057600080fd5b61022a600480803590602001909190803590602001908201803590602001919091929050506104b2565b604051808215151515815260200191505060405180910390f35b341561024f57600080fd5b610296600480803590602001909190803590602001909190803590602001908201803590602001919091929080359060200190820180359060200191909192905050610520565b604051808215151515815260200191505060405180910390f35b60008060008060008888604051808383808284378201915050925050506040518091039020935086866040518083838082843782019150509250505060405180910390209250838360405180836000191660001916815260200182600019166000191681526020019250505060405180910390209150600090505b60008054905081101561037e57816000191660008281548110151561034c57fe5b9060005260206000209060050201600001546000191614156103715760019450610383565b808060010191505061032b565b600094505b50505050949350505050565b60008060008085856040518083838082843782019150509250505060405180910390209250600160008881526020019081526020016000209150600090505b818054905081101561041957826000191682828154811015156103ed57fe5b90600052602060002090015460001916141561040c576001935061041e565b80806001019150506103ce565b600093505b5050509392505050565b600080600090505b6000805490508110156104a6578360008281548110151561044d57fe5b90600052602060002090600502016003015414801561048b57508260008281548110151561047757fe5b906000526020600020906005020160040154145b1561049957600191506104ab565b8080600101915050610430565b600091505b5092915050565b600080838360405180838380828437820191505092505050604051809103902090506001600086815260200190815260200160002080548060010182816104f9919061083a565b91600052602060002090016000839091909150906000191690555060019150509392505050565b60008060008060008a1115156105a1577f08c379a0afcc32b1a39302f7cb8073359698411ab5fd6e3edb2c02c0b5fba8aa60405180806020018281038252601f8152602001807f5175657279204944206d7573742062652067726561746572207468616e20300081525060200191505060405180910390a16000935061082d565b60008911151561061c577f08c379a0afcc32b1a39302f7cb8073359698411ab5fd6e3edb2c02c0b5fba8aa6040518080602001828103825260208152602001807f526573756c74204944206d7573742062652067726561746572207468616e203081525060200191505060405180910390a16000935061082d565b6000888890501415610699577f08c379a0afcc32b1a39302f7cb8073359698411ab5fd6e3edb2c02c0b5fba8aa60405180806020018281038252601d8152602001807f517565727920737472696e67206d7573742062652070726f766964656400000081525060200191505060405180910390a16000935061082d565b6000868690501415610716577f08c379a0afcc32b1a39302f7cb8073359698411ab5fd6e3edb2c02c0b5fba8aa60405180806020018281038252601e8152602001807f526573756c7420737472696e67206d7573742062652070726f7669646564000081525060200191505060405180910390a16000935061082d565b8787604051808383808284378201915050925050506040518091039020925085856040518083838082843782019150509250505060405180910390209150828260405180836000191660001916815260200182600019166000191681526020019250505060405180910390209050600080548060010182816107989190610866565b9160005260206000209060050201600060a0604051908101604052808560001916815260200187600019168152602001866000191681526020018e81526020018d81525090919091506000820151816000019060001916905560208201518160010190600019169055604082015181600201906000191690556060820151816003015560808201518160040155505050600193505b5050509695505050505050565b815481835581811511610861578183600052602060002091820191016108609190610898565b5b505050565b8154818355818115116108935760050281600502836000526020600020918201910161089291906108bd565b5b505050565b6108ba91905b808211156108b657600081600090555060010161089e565b5090565b90565b61090191905b808211156108fd576000808201600090556001820160009055600282016000905560038201600090556004820160009055506005016108c3565b5090565b905600a165627a7a723058200570b1317ecdd83f71ae9e26b37929a8950781bf10bfd47fce8c2dce49b26b590029",
  "source": "pragma solidity ^0.4.4;\r\n\r\ncontract QueryResultHandler {\r\n\r\n  struct QueryResultStruct {\r\n      bytes32 finalHash;\r\n      bytes32 queryHash;\r\n      bytes32 resultHash;\r\n      uint256 queryId;\r\n      uint256 resultId;\r\n  }\r\n\r\n  QueryResultStruct[] queryResultStructArray;\r\n\r\n  mapping(uint256=>bytes32[]) idRowArrayMapping;\r\n\r\n  event Error(string errorMessage);\r\n\r\n  function storeQueryResults(uint256 _queryId, uint256 _resultId, string _queryString, string _resultString) external returns (bool success) {\r\n    if (_queryId <= 0) {\r\n      Error(\"Query ID must be greater than 0\");\r\n      return false;\r\n    }\r\n    if (_resultId <= 0) {\r\n      Error(\"Result ID must be greater than 0\");\r\n      return false;\r\n    }\r\n    if (bytes(_queryString).length == 0) {\r\n      Error(\"Query string must be provided\");\r\n      return false;\r\n    }\r\n    if (bytes(_resultString).length == 0) {\r\n      Error(\"Result string must be provided\");\r\n      return false;\r\n    }\r\n\r\n    bytes32 queryHash = keccak256(_queryString);\r\n    bytes32 resultHash = keccak256(_resultString);\r\n    bytes32 hashThem = keccak256(queryHash, resultHash);\r\n    queryResultStructArray.push(QueryResultStruct(hashThem, queryHash, resultHash, _queryId, _resultId));\r\n    return true;\r\n  }\r\n\r\n  function validateQueryResultsById(uint256 _queryId, uint256 _resultId) external view returns (bool success ) {\r\n    for (uint i = 0; i < queryResultStructArray.length; i++) {\r\n        if (queryResultStructArray[i].queryId == _queryId\r\n        && queryResultStructArray[i].resultId == _resultId) {\r\n            return true;\r\n        }\r\n    }\r\n    return false;\r\n  }\r\n\r\n  function validateQueryResultsByString(string _queryString, string _resultString) external view returns (bool success ) {\r\n    bytes32 queryHash = keccak256(_queryString);\r\n    bytes32 resultHash = keccak256(_resultString);\r\n\r\n    bytes32 hashThem = keccak256(queryHash, resultHash);\r\n\r\n    for (uint i = 0; i < queryResultStructArray.length; i++) {\r\n        if (queryResultStructArray[i].finalHash == hashThem) {\r\n            return true;\r\n        }\r\n    }\r\n    return false;\r\n  }\r\n\r\n  function storeRow(uint256 _id, string _row) external returns (bool success) {\r\n    bytes32 rowHash = keccak256(_row);\r\n    idRowArrayMapping[_id].push(rowHash);\r\n\r\n    return true;\r\n  }\r\n\r\n  function validateRow(uint256 _id, string _row) external view returns (bool success) {\r\n    bytes32 rowHash = keccak256(_row);\r\n    bytes32[] storage dataSet = idRowArrayMapping[_id];\r\n\r\n    for (uint i = 0; i < dataSet.length; i++) {\r\n      if (dataSet[i] == rowHash) {\r\n        return true;\r\n      }\r\n    }\r\n    return false;\r\n  }\r\n\r\n  function() public {\r\n    Error(\"No function is not defined with the given identifier\");\r\n  }\r\n}\r\n",
  "sourcePath": "C:\\Users\\Antona\\dapps\\MA_project\\contracts\\QueryResultHandler.sol",
  "compiler": {
    "name": "solc",
    "version": "0.4.19+commit.c4cbbb05.Emscripten.clang"
  },
  "schemaVersion": "1.0.1",
  "updatedAt": "2018-04-02T18:31:13.393Z"
}