{
  "contractName": "QueryResultHandler",
  "abi": [
    {
      "anonymous": false,
      "inputs": [
        {
          "indexed": false,
          "name": "queryId",
          "type": "int256"
        },
        {
          "indexed": false,
          "name": "resultId",
          "type": "int256"
        }
      ],
      "name": "QueryResultStored",
      "type": "event"
    },
    {
      "anonymous": false,
      "inputs": [],
      "name": "RowStored",
      "type": "event"
    },
    {
      "anonymous": false,
      "inputs": [
        {
          "indexed": false,
          "name": "errorMessage",
          "type": "string"
        }
      ],
      "name": "Error",
      "type": "event"
    },
    {
      "constant": false,
      "inputs": [
        {
          "name": "_queryId",
          "type": "int256"
        },
        {
          "name": "_resultId",
          "type": "int256"
        },
        {
          "name": "_queryString",
          "type": "string"
        },
        {
          "name": "_resultString",
          "type": "string"
        }
      ],
      "name": "storeQueryResults",
      "outputs": [
        {
          "name": "success",
          "type": "bool"
        }
      ],
      "payable": false,
      "stateMutability": "nonpayable",
      "type": "function"
    },
    {
      "constant": true,
      "inputs": [
        {
          "name": "_queryId",
          "type": "int256"
        },
        {
          "name": "_resultId",
          "type": "int256"
        }
      ],
      "name": "validateQueryResultsById",
      "outputs": [
        {
          "name": "result",
          "type": "uint8"
        }
      ],
      "payable": false,
      "stateMutability": "view",
      "type": "function"
    },
    {
      "constant": true,
      "inputs": [
        {
          "name": "_queryString",
          "type": "string"
        },
        {
          "name": "_resultString",
          "type": "string"
        }
      ],
      "name": "validateQueryResultsByString",
      "outputs": [
        {
          "name": "result",
          "type": "uint8"
        }
      ],
      "payable": false,
      "stateMutability": "view",
      "type": "function"
    },
    {
      "constant": false,
      "inputs": [
        {
          "name": "_resultId",
          "type": "int256"
        },
        {
          "name": "_rowString",
          "type": "string"
        }
      ],
      "name": "storeRow",
      "outputs": [
        {
          "name": "success",
          "type": "bool"
        }
      ],
      "payable": false,
      "stateMutability": "nonpayable",
      "type": "function"
    },
    {
      "constant": true,
      "inputs": [
        {
          "name": "_resultId",
          "type": "int256"
        },
        {
          "name": "_rowString",
          "type": "string"
        }
      ],
      "name": "validateRow",
      "outputs": [
        {
          "name": "result",
          "type": "uint8"
        }
      ],
      "payable": false,
      "stateMutability": "view",
      "type": "function"
    }
  ],
  "bytecode": "0x6060604052341561000f57600080fd5b610a938061001e6000396000f30060606040526004361061006d576000357c0100000000000000000000000000000000000000000000000000000000900463ffffffff1680630ebb26fe146100725780634f96219b146100d6578063ac94d0db14610125578063ca584a7514610191578063dce1e8c5146101ea575b600080fd5b341561007d57600080fd5b6100b2600480803590602001908201803590602001919091929080359060200190820180359060200191909192905050610238565b604051808260038111156100c257fe5b60ff16815260200191505060405180910390f35b34156100e157600080fd5b61010b60048080359060200190919080359060200190820180359060200191909192905050610340565b604051808215151515815260200191505060405180910390f35b341561013057600080fd5b6101776004808035906020019091908035906020019091908035906020019082018035906020019190919290803590602001908201803590602001919091929050506104d3565b604051808215151515815260200191505060405180910390f35b341561019c57600080fd5b6101c66004808035906020019091908035906020019082018035906020019190919290505061082c565b604051808260038111156101d657fe5b60ff16815260200191505060405180910390f35b34156101f557600080fd5b61021460048080359060200190919080359060200190919050506108ed565b6040518082600381111561022457fe5b60ff16815260200191505060405180910390f35b6000806000806000808989905014156102545760039450610334565b60008787905014156102695760039450610334565b8888604051808383808284378201915050925050506040518091039020935086866040518083838082843782019150509250505060405180910390209250838360405180836000191660001916815260200182600019166000191681526020019250505060405180910390209150600090505b60008054905081101561032f5781600019166000828154811015156102fd57fe5b9060005260206000209060050201600001546000191614156103225760009450610334565b80806001019150506102dc565b600194505b50505050949350505050565b6000806000851315156103be577f08c379a0afcc32b1a39302f7cb8073359698411ab5fd6e3edb2c02c0b5fba8aa6040518080602001828103825260208152602001807f526573756c74204944206d7573742062652067726561746572207468616e203081525060200191505060405180910390a1600091506104cb565b600084849050141561043b577f08c379a0afcc32b1a39302f7cb8073359698411ab5fd6e3edb2c02c0b5fba8aa60405180806020018281038252601b8152602001807f526f7720737472696e67206d7573742062652070726f7669646564000000000081525060200191505060405180910390a1600091506104cb565b8383604051808383808284378201915050925050506040518091039020905060016000868152602001908152602001600020805480600101828161047f919061099d565b9160005260206000209001600083909190915090600019169055507f7c2d36c29ad860ff13ca8c67e5731f6e0e74705c878d5b1d7674ebbdea49b9e160405160405180910390a1600191505b509392505050565b60008060008060008a131515610554577f08c379a0afcc32b1a39302f7cb8073359698411ab5fd6e3edb2c02c0b5fba8aa60405180806020018281038252601f8152602001807f5175657279204944206d7573742062652067726561746572207468616e20300081525060200191505060405180910390a16000935061081f565b6000891315156105cf577f08c379a0afcc32b1a39302f7cb8073359698411ab5fd6e3edb2c02c0b5fba8aa6040518080602001828103825260208152602001807f526573756c74204944206d7573742062652067726561746572207468616e203081525060200191505060405180910390a16000935061081f565b600088889050141561064c577f08c379a0afcc32b1a39302f7cb8073359698411ab5fd6e3edb2c02c0b5fba8aa60405180806020018281038252601d8152602001807f517565727920737472696e67206d7573742062652070726f766964656400000081525060200191505060405180910390a16000935061081f565b60008686905014156106c9577f08c379a0afcc32b1a39302f7cb8073359698411ab5fd6e3edb2c02c0b5fba8aa60405180806020018281038252601e8152602001807f526573756c7420737472696e67206d7573742062652070726f7669646564000081525060200191505060405180910390a16000935061081f565b87876040518083838082843782019150509250505060405180910390209250858560405180838380828437820191505092505050604051809103902091508282604051808360001916600019168152602001826000191660001916815260200192505050604051809103902090506000805480600101828161074b91906109c9565b9160005260206000209060050201600060a0604051908101604052808560001916815260200187600019168152602001866000191681526020018e81526020018d815250909190915060008201518160000190600019169055602082015181600101906000191690556040820151816002019060001916905560608201518160030155608082015181600401555050507f56568f98937be5f1d6861befa4747dfce6af72fa48249c68da56084eff360ca88a8a604051808381526020018281526020019250505060405180910390a1600193505b5050509695505050505050565b60008060008060008713151561084557600293506108e3565b600086869050141561085a57600393506108e3565b85856040518083838082843782019150509250505060405180910390209250600160008881526020019081526020016000209150600090505b81805490508110156108de57826000191682828154811015156108b257fe5b9060005260206000209001546000191614156108d157600093506108e3565b8080600101915050610893565b600193505b5050509392505050565b6000806000841315156109035760029150610996565b6000831315156109165760029150610996565b600090505b600080549050811015610991578360008281548110151561093857fe5b90600052602060002090600502016003015414801561097657508260008281548110151561096257fe5b906000526020600020906005020160040154145b156109845760009150610996565b808060010191505061091b565b600191505b5092915050565b8154818355818115116109c4578183600052602060002091820191016109c391906109fb565b5b505050565b8154818355818115116109f6576005028160050283600052602060002091820191016109f59190610a20565b5b505050565b610a1d91905b80821115610a19576000816000905550600101610a01565b5090565b90565b610a6491905b80821115610a6057600080820160009055600182016000905560028201600090556003820160009055600482016000905550600501610a26565b5090565b905600a165627a7a7230582077339b95fb88bc7954da7e197e29e2615ed07f331518833f226e66e143b9b0f90029",
  "source": "pragma solidity ^0.4.21;\r\n\r\ncontract QueryResultHandler {\r\n\r\n  struct QueryResultStruct {\r\n      bytes32 finalHash;\r\n      bytes32 queryHash;\r\n      bytes32 resultHash;\r\n      int256 queryId;\r\n      int256 resultId;\r\n  }\r\n\r\n  QueryResultStruct[] queryResultStructArray;\r\n\r\n  mapping(int256=>bytes32[]) idRowArrayMapping;\r\n\r\n  event QueryResultStored(\r\n    int256 queryId,\r\n    int256 resultId\r\n    );\r\n  event RowStored();\r\n  event Error(string errorMessage);\r\n\r\n  enum ViewResultCodes { Success, NoMatchFound, IntegerNotPositive, StringEmpty }\r\n\r\n  function storeQueryResults(int256 _queryId, int256 _resultId, string _queryString, string _resultString) external returns (bool success) {\r\n    if (_queryId <= 0) {\r\n      emit Error(\"Query ID must be greater than 0\");\r\n      return false;\r\n    }\r\n    if (_resultId <= 0) {\r\n      emit Error(\"Result ID must be greater than 0\");\r\n      return false;\r\n    }\r\n    if (bytes(_queryString).length == 0) {\r\n      emit Error(\"Query string must be provided\");\r\n      return false;\r\n    }\r\n    if (bytes(_resultString).length == 0) {\r\n      emit Error(\"Result string must be provided\");\r\n      return false;\r\n    }\r\n\r\n    bytes32 queryHash = keccak256(_queryString);\r\n    bytes32 resultHash = keccak256(_resultString);\r\n    bytes32 finalHash = keccak256(queryHash, resultHash);\r\n    queryResultStructArray.push(QueryResultStruct(finalHash, queryHash, resultHash, _queryId, _resultId));\r\n    emit QueryResultStored(_queryId, _resultId);\r\n    return true;\r\n  }\r\n\r\n  function validateQueryResultsById(int256 _queryId, int256 _resultId) external view returns (ViewResultCodes result) {\r\n    if (_queryId <= 0) {\r\n      return ViewResultCodes.IntegerNotPositive;\r\n    }\r\n    if (_resultId <= 0) {\r\n      return ViewResultCodes.IntegerNotPositive;\r\n    }\r\n    for (uint i = 0; i < queryResultStructArray.length; i++) {\r\n        if (queryResultStructArray[i].queryId == _queryId\r\n        && queryResultStructArray[i].resultId == _resultId) {\r\n            return ViewResultCodes.Success;\r\n        }\r\n    }\r\n    return ViewResultCodes.NoMatchFound;\r\n  }\r\n\r\n  function validateQueryResultsByString(string _queryString, string _resultString) external view returns (ViewResultCodes result) {\r\n    if (bytes(_queryString).length == 0) {\r\n      return ViewResultCodes.StringEmpty;\r\n    }\r\n    if (bytes(_resultString).length == 0) {\r\n      return ViewResultCodes.StringEmpty;\r\n    }\r\n    bytes32 queryHash = keccak256(_queryString);\r\n    bytes32 resultHash = keccak256(_resultString);\r\n\r\n    bytes32 finalHash = keccak256(queryHash, resultHash);\r\n\r\n    for (uint i = 0; i < queryResultStructArray.length; i++) {\r\n        if (queryResultStructArray[i].finalHash == finalHash) {\r\n            return ViewResultCodes.Success;\r\n        }\r\n    }\r\n    return ViewResultCodes.NoMatchFound;\r\n  }\r\n\r\n  function storeRow(int256 _resultId, string _rowString) external returns (bool success) {\r\n    if (_resultId <= 0) {\r\n      emit Error(\"Result ID must be greater than 0\");\r\n      return false;\r\n    }\r\n    if (bytes(_rowString).length == 0) {\r\n      emit Error(\"Row string must be provided\");\r\n      return false;\r\n    }\r\n\r\n    bytes32 rowHash = keccak256(_rowString);\r\n    idRowArrayMapping[_resultId].push(rowHash);\r\n    emit RowStored();\r\n    return true;\r\n  }\r\n\r\n  function validateRow(int256 _resultId, string _rowString) external view returns (ViewResultCodes result) {\r\n    if (_resultId <= 0) {\r\n      return ViewResultCodes.IntegerNotPositive;\r\n    }\r\n    if (bytes(_rowString).length == 0) {\r\n      return ViewResultCodes.StringEmpty;\r\n    }\r\n\r\n    bytes32 rowHash = keccak256(_rowString);\r\n    bytes32[] storage dataSet = idRowArrayMapping[_resultId];\r\n\r\n    for (uint i = 0; i < dataSet.length; i++) {\r\n      if (dataSet[i] == rowHash) {\r\n        return ViewResultCodes.Success;\r\n      }\r\n    }\r\n    return ViewResultCodes.NoMatchFound;\r\n  }\r\n}\r\n",
  "sourcePath": "C:\\Users\\Antona\\dapps\\MA_project\\contracts\\QueryResultHandler.sol",
  "compiler": {
    "name": "solc",
    "version": "0.4.21+commit.dfe3193c.Emscripten.clang"
  },
  "schemaVersion": "2.0.0",
  "updatedAt": "2018-04-26T10:02:01.635Z"
}