{
  "contractName": "QueryResultHandler",
  "abi": [
    {
      "payable": false,
      "stateMutability": "nonpayable",
      "type": "fallback"
    },
    {
      "anonymous": false,
      "inputs": [
        {
          "indexed": false,
          "name": "errorMessage",
          "type": "string"
        }
      ],
      "name": "Error",
      "type": "event"
    },
    {
      "constant": false,
      "inputs": [
        {
          "name": "_queryId",
          "type": "uint256"
        },
        {
          "name": "_resultId",
          "type": "uint256"
        },
        {
          "name": "_queryString",
          "type": "string"
        },
        {
          "name": "_resultString",
          "type": "string"
        }
      ],
      "name": "storeQueryResults",
      "outputs": [
        {
          "name": "success",
          "type": "bool"
        }
      ],
      "payable": false,
      "stateMutability": "nonpayable",
      "type": "function"
    },
    {
      "constant": true,
      "inputs": [
        {
          "name": "_queryId",
          "type": "uint256"
        },
        {
          "name": "_resultId",
          "type": "uint256"
        }
      ],
      "name": "validateQueryResultsById",
      "outputs": [
        {
          "name": "success",
          "type": "bool"
        }
      ],
      "payable": false,
      "stateMutability": "view",
      "type": "function"
    },
    {
      "constant": true,
      "inputs": [
        {
          "name": "_queryString",
          "type": "string"
        },
        {
          "name": "_resultString",
          "type": "string"
        }
      ],
      "name": "validateQueryResultsByString",
      "outputs": [
        {
          "name": "success",
          "type": "bool"
        }
      ],
      "payable": false,
      "stateMutability": "view",
      "type": "function"
    }
  ],
  "bytecode": "0x6060604052341561000f57600080fd5b6106f58061001e6000396000f300606060405260043610610057576000357c0100000000000000000000000000000000000000000000000000000000900463ffffffff1680630ebb26fe146100cc5780633405486b14610126578063b8ccbb361461016a575b341561006257600080fd5b7f08c379a0afcc32b1a39302f7cb8073359698411ab5fd6e3edb2c02c0b5fba8aa6040518080602001828103825260178152602001807f46756e6374696f6e206973206e6f7420646566696e656400000000000000000081525060200191505060405180910390a1005b34156100d757600080fd5b61010c6004808035906020019082018035906020019190919290803590602001908201803590602001919091929050506101d6565b604051808215151515815260200191505060405180910390f35b341561013157600080fd5b61015060048080359060200190919080359060200190919050506102b5565b604051808215151515815260200191505060405180910390f35b341561017557600080fd5b6101bc600480803590602001909190803590602001909190803590602001908201803590602001919091929080359060200190820180359060200191909192905050610336565b604051808215151515815260200191505060405180910390f35b60008060008060008888604051808383808284378201915050925050506040518091039020935086866040518083838082843782019150509250505060405180910390209250838360405180836000191660001916815260200182600019166000191681526020019250505060405180910390209150600090505b6000805490508110156102a457816000191660008281548110151561027257fe5b90600052602060002090600502016000015460001916141561029757600194506102a9565b8080600101915050610251565b600094505b50505050949350505050565b6000806000905060008054905081101561032e57836000828154811015156102d957fe5b90600052602060002090600502016003015414801561031757508260008281548110151561030357fe5b906000526020600020906005020160040154145b15610325576001915061032f565b6000915061032f565b5b5092915050565b60008060008060008a1115156103b7577f08c379a0afcc32b1a39302f7cb8073359698411ab5fd6e3edb2c02c0b5fba8aa60405180806020018281038252601f8152602001807f5175657279204944206d7573742062652067726561746572207468616e20300081525060200191505060405180910390a160009350610643565b600089111515610432577f08c379a0afcc32b1a39302f7cb8073359698411ab5fd6e3edb2c02c0b5fba8aa6040518080602001828103825260208152602001807f526573756c74204944206d7573742062652067726561746572207468616e203081525060200191505060405180910390a160009350610643565b60008888905014156104af577f08c379a0afcc32b1a39302f7cb8073359698411ab5fd6e3edb2c02c0b5fba8aa60405180806020018281038252601d8152602001807f517565727920737472696e67206d7573742062652070726f766964656400000081525060200191505060405180910390a160009350610643565b600086869050141561052c577f08c379a0afcc32b1a39302f7cb8073359698411ab5fd6e3edb2c02c0b5fba8aa60405180806020018281038252601e8152602001807f526573756c7420737472696e67206d7573742062652070726f7669646564000081525060200191505060405180910390a160009350610643565b8787604051808383808284378201915050925050506040518091039020925085856040518083838082843782019150509250505060405180910390209150828260405180836000191660001916815260200182600019166000191681526020019250505060405180910390209050600080548060010182816105ae9190610650565b9160005260206000209060050201600060a0604051908101604052808560001916815260200187600019168152602001866000191681526020018e81526020018d81525090919091506000820151816000019060001916905560208201518160010190600019169055604082015181600201906000191690556060820151816003015560808201518160040155505050600193505b5050509695505050505050565b81548183558181151161067d5760050281600502836000526020600020918201910161067c9190610682565b5b505050565b6106c691905b808211156106c257600080820160009055600182016000905560028201600090556003820160009055600482016000905550600501610688565b5090565b905600a165627a7a72305820c27fc236e1b056d9e26213175808bf535891cf4c8d033e54f111e5425b44dffd0029",
  "source": "pragma solidity ^ 0.4.4;\r\n\r\ncontract QueryResultHandler {\r\n\r\n  struct QueryResultStruct {\r\n    bytes32 finalHash;\r\n    bytes32 queryHash;\r\n    bytes32 resultHash;\r\n    uint256 queryId;\r\n    uint256 resultId;\r\n  }\r\n\r\n  QueryResultStruct[] queryResultStructArray;\r\n\r\n  event Error(string errorMessage);\r\n\r\n  function storeQueryResults(uint256 _queryId, uint256 _resultId, string _queryString, string _resultString) external returns(bool success) {\r\n\r\n    if (_queryId <= 0) {\r\n      Error(\"Query ID must be greater than 0\");\r\n      return false;\r\n    }\r\n    if (_resultId <= 0) {\r\n      Error(\"Result ID must be greater than 0\");\r\n      return false;\r\n    }\r\n    if (bytes(_queryString).length == 0) {\r\n      Error(\"Query string must be provided\");\r\n      return false;\r\n    }\r\n    if (bytes(_resultString).length == 0) {\r\n      Error(\"Result string must be provided\");\r\n      return false;\r\n    }\r\n\r\n    bytes32 queryHash = keccak256(_queryString);\r\n    bytes32 resultHash = keccak256(_resultString);\r\n    bytes32 hashThem = keccak256(queryHash, resultHash);\r\n\r\n    queryResultStructArray.push(QueryResultStruct(hashThem, queryHash, resultHash, _queryId, _resultId));\r\n    return true;\r\n  }\r\n\r\n  function validateQueryResultsById(uint256 _queryId, uint256 _resultId) external view returns(bool success) {\r\n    for (uint i = 0; i < queryResultStructArray.length; i++) {\r\n      if (queryResultStructArray[i].queryId == _queryId &&\r\n        queryResultStructArray[i].resultId == _resultId) {\r\n        return true;\r\n      }\r\n      return false;\r\n    }\r\n  }\r\n\r\n    function validateQueryResultsByString(string _queryString, string _resultString) external view returns(bool success) {\r\n      bytes32 queryHash = keccak256(_queryString);\r\n      bytes32 resultHash = keccak256(_resultString);\r\n      bytes32 hashThem = keccak256(queryHash, resultHash);\r\n\r\n      for (uint i = 0; i < queryResultStructArray.length; i++) {\r\n        if (queryResultStructArray[i].finalHash == hashThem) {\r\n          return true;\r\n        }\r\n      }\r\n      return false;\r\n    }\r\n\r\n    function() public {\r\n      Error(\"Function is not defined\");\r\n    }\r\n}\r\n",
  "sourcePath": "C:\\Users\\Antona\\dapps\\MA_project\\contracts\\QueryResultHandler.sol",
  "compiler": {
    "name": "solc",
    "version": "0.4.19+commit.c4cbbb05.Emscripten.clang"
  },
  "schemaVersion": "1.0.1",
  "updatedAt": "2018-04-01T17:51:41.229Z"
}